:020000040000FA
:1000000040F90020F91F0200498A0400E51F0200A0
:10001000E51F0200E51F0200E51F020000000000CE
:10002000000000000000000000000000ED210200C0
:10003000E51F020000000000B9210200E51F0200D8
:10004000CD2302003FE50400CD230200CD230200B2
:10005000CD230200CD230200CD230200CD230200D8
:100060000FE50400CD230200CD23020029E50400A2
:10007000CD230200CD230200CD230200CD230200B8
:10008000CD230200CD230200CD230200CD230200A8
:10009000CD230200CD230200CD230200CD23020098
:1000A000CD230200CD230200CD230200CD23020088
:1000B000CD230200CD230200CD230200CD23020078
:1000C000CD230200CD230200CD230200CD23020068
:1000D000CD230200CD230200CD230200CD23020058
:1000E000CD230200CD230200CD230200CD23020048
:1000F000CD230200CD230200CD230200CD23020038
:100100002DE9F00791E8F807B2E802105B1854EB0C
:100110000C04B2E802104D4156EB0C06B2E8021096
:100120004F4158EB0C08B2E8021059EB01095AEBA9
:100130000C0A80E8F80780410130BDE8F0077047FD
:100140002DE9F00791E8F807B2E802105B1A74EBAA
:100150000C04B2E802108D4176EB0C06B2E80210F6
:100160008F4178EB0C08B2E8021079EB01097AEBC9
:100170000C0A80E8F80780414042BDE8F00770476C
:100180002DE9F007524290E87800B1E88007174067
:10019000DB1918EA020854EB080419EA020955EBC6
:1001A00009051AEA020A56EB0A0678C090E87800B8
:1001B000B1E8800717407B4118EA020854EB0804B5
:1001C00019EA020955EB09051AEA020A56EB0A0672
:1001D00078C080410130BDE8F00770472DE9F00795
:1001E000524290E87800B1E880071740DB1B18EA1C
:1001F000020874EB080419EA020975EB09051AEA0A
:10020000020A76EB0A0678C090E87800B1E8800729
:100210001740BB4118EA020874EB080419EA020906
:1002200075EB09051AEA020A76EB0A0678C08041E6
:100230004042BDE8F00770472DE9F00152424FF00F
:10024000040890E8300091E8C000A31B1340E41AB2
:10025000F618EB1B1340ED1AFF1830C0C0C1B8F1FF
:100260000108EED1BDE8F001704700BF00B592E88B
:10027000DC072DE9DC07B1E8805702B4A7FB025187
:100280000A95A8FB020BE7FB6310E9FB62B00B9138
:10029000A8FB0351EAFB6201E7FB64B5E7FB6605D7
:1002A000E8FB6615CDF830B0A9FB03B6EAFB631690
:1002B000ECFB6356E8FB640BE9FB641BEAFB645B45
:1002C000ECFB646B0D90ACFB0230059CEEFB6250C6
:1002D000E9FB6460EAFB64B0E7FB6431E8FB64516E
:1002E000069CE8FB6461E9FB64B1EAFB64010E93E0
:1002F000A7FB0432079CE7FB6462E8FB64B2E9FBFE
:100300006402EAFB6412049CE9FB6453EAFB646345
:10031000089CE7FB64B3E8FB6403E9FB6413EAFBB6
:1003200064230F955DF8049B99E80006DDF80080D2
:10033000A9FB0854EAFB68B4DDF81080ECFB680404
:10034000EEFB6814E9FB6824EAFB6834DDF80480FE
:10035000EEFB6865E9FB68B5EAFB6805DDF814802B
:10036000ECFB6815EEFB6825E9FB6835EAFB6845A0
:100370000F96DDF80880AEFB0876E9FB6806EAFB1D
:100380006816DDF81880ECFB6826EEFB6836E9FBA2
:100390006846EAFB6856DDF80C80ECFB68B7EEFBBC
:1003A0006807E9FB6817EAFB6827DDF81C80ECFBAF
:1003B0006837EEFB6847E9FB6857EAFB686708B0F7
:1003C00000BD00BF2DE9F14F87B0FFF74FFFDDF80B
:1003D0001C8008F1200888E8FF00FFBC87E87F0840
:1003E000BDE8F08F00B591E89857A3FB0352019543
:1003F000A3FB0401E3FB6420E3FB67100292A3FB71
:100400000752E3FB6802E4FB6415E3FB6805E3FBCA
:1004100069250391A4FB07B6E3FB6926E3FB6A5653
:10042000E4FB670BE4FB682BE3FB6A5BE3FB6C6BB1
:100430000490A4FB0810E4FB6950E3FB6C60E3FB51
:100440006EB0E7FB6721E4FB6951E4FB6A61E3FB03
:100450006EB1E4FB6E010592A7FB0832E4FB6A6211
:10046000E4FB6CB2E4FB6E02E7FB6E12E7FB685341
:10047000E7FB6963E4FB6CB3E7FB6C03E7FB6E131C
:10048000E8FB6E230695A7FB0954E7FB6AB4E7FB7C
:100490006C04E8FB6C14E8FB6E24E9FB6E34E8FBAB
:1004A0006865E7FB6AB5E8FB6A05E8FB6C15E9FBE4
:1004B0006C25E9FB6E35EAFB6E450796A8FB0976CD
:1004C000E8FB6A06E9FB6A16E9FB6C26EAFB6C3678
:1004D000EAFB6E46ECFB6E56E8FB69B7E9FB690781
:1004E000E9FB6A17EAFB6A27EAFB6C37ECFB6C470F
:1004F000ECFB6E57EEFB6E6700BD00BF2DE9F14FC0
:1005000087B0FFF76FFFDDF81C8008F1200888E84E
:10051000FF00FFBC87E87F08BDE8F08F30B44FF0E4
:10052000000310F8014B11F8015B013A84EA05045D
:1005300043EA0403F5D1A3F101034FEAD37030BCC1
:10054000704700BF4FF0000310F8012B013943EA58
:100550000203F9D1A3F101034FEAD370704700BF42
:1005600030B411F8014B12F8015B6C4000F8014BFC
:10057000013BF6D130BC70472DE9F00791E8F80750
:10058000B2E802105B1854EB0C04B2E802104D41C3
:1005900056EB0C06B2E802104F4158EB0C08B2E8DB
:1005A000021059EB01095AEB0C0A8941B3F1FF33F0
:1005B00074F1FF3475F1FF3576F1000677F100072D
:1005C00078F1000879F101097AF1FF3A51F100015F
:1005D0005B184C414D4156F1000657F1000758F1A8
:1005E000000859EBD1795AEB010A80E8F807BDE819
:1005F000F00770472DE9F00791E8F807B2E802101C
:100600005B1A74EB0C04B2E802108D4176EB0C0619
:10061000B2E802108F4178EB0C08B2E8021079EBD7
:1006200001097AEB0C0A89415B184C414D4156F1A6
:10063000000657F1000758F1000859EBD1795AEB41
:10064000010A80E8F807BDE8F007704718EB0408D6
:1006500059EB05095AEB060A5BEB070B5FF0000C40
:100660004CF1000C18EB050859EB06095AEB070A88
:100670005BEB070B50EB0C005FF0000C51EB0C0137
:1006800052EB0C0263414CF1000CB8EB070879F116
:1006900000097AF1000A7BEB040BA841B141A241A9
:1006A000B3416CF1000CBBEB050BB041B941AA4161
:1006B000BB416CF1000C4CF001068CF0020718EB0A
:1006C000060859EB6C095AEB6C0A7BEB6C0B70EB70
:1006D0006C0471EB6C0572EB670653EB6C076CEB0B
:1006E0006C0C18EB0C0059EB0C015AEB0C025BF193
:1006F000000354F1000455F1000556EBDC7657EB8E
:100700000C0770472DE9F14F87B0FFF7AFFDDDF81B
:100710001080DDF81490DDF818A0FFF797FFBDE812
:10072000000FFFF793FF03B05DF8048B88E8FF002C
:10073000BDE8F08F2DE9F14F87B0FFF753FEDDF8EC
:100740001080DDF81490DDF818A0FFF77FFFBDE8FA
:10075000000FFFF77BFF03B05DF8048B88E8FF0014
:10076000BDE8F08F074B1B78002B4FF00003836030
:100770000360054B436014BF02220122FF23C271B4
:1007800003727047F821002048010800064B074A11
:10079000DB7802604FF442728280C371082200232A
:1007A00082710372704700BFF8210020BDA20100D2
:1007B000064B074A1B7902604FF4B8728280C371FE
:1007C0000822FF2382710372704700BFF8210020C6
:1007D0000F9E01002DE9F341C41D002824F00704F9
:1007E000064614BF2046002000F0F6FC071E04DA7F
:1007F0006FF00B0002B0BDE8F0810EB9FC42F7D4F7
:10080000354D297AE879AB7A6A7A0331033016F0EC
:10081000E6F90028ECDBA978EB783C440334002EA1
:10082000194424F0030400FB01F114BF204600200A
:1008300000F068FE20440EB90028D9DB2B7904466D
:10084000B3B1697C19446B791944FF29D0DC0330BA
:10085000002E20F0030414BF20460020AA89C9B24C
:1008600000F0C0FE0028C3DB04440EB9002CBFDB3F
:10087000012000F0A7FCC8B1E97AB9B195F8283099
:100880000734002B15BF402325234FF48172282203
:1008900024F00704002E14BF2046002006F02CF898
:1008A0000028A5DB04440EB9002CA1DBAB7BE3B12F
:1008B0002B799BB10734002E24F0070414BF204687
:1008C0000020A97B0BF0E0F9002891DB044466B915
:1008D000002C0ADA8CE700BFF8210020012000F08C
:1008E00071FC10B1EB7A002BE4D1714B1B6893B112
:1008F000A97981B10334002E24F0030414BF2046EB
:100900000020EA7B98470028FFF672AF044416B92E
:10091000002CFFF66DAF674B1B688BB1297C79B15A
:100920000334002E24F0030414BF2046002098470F
:100930000028FFF65DAF044416B9002CFFF658AF4F
:100940005D4B1F68AFB1697C99B10334002E2B7DDC
:10095000009324F0030414BF20460020EB7CAA7C03
:10096000B8470028FFF644AF044416B9002CFFF640
:100970003FAF072000F026FC98B1A97989B1033474
:10098000002E24F0030414BF20460020AA7D00F0AE
:1009900017FF0028FFF62CAF044416B9002CFFF611
:1009A00027AF95F82100B6FA86F77F09A0B1EB7E54
:1009B000297E033424F00704194444F004043B4620
:1009C0002246C9B200F03EFF0028FFF611AF0444F2
:1009D00016B9002CFFF60CAF95F82210002957D05D
:1009E0000734002E24F0070814BF40460020AA8CCC
:1009F00016F00AF9041EFFF6FBAE444416B9002CAB
:100A0000FFF6F6AE1EB1A98C404610F02BFB297FF5
:100A100000293FD095F82030002B3BD0EA8B0734DB
:100A2000002E24F0070802F1240214BF40460020E3
:100A300092B216F0E9F8041EFFF6DAAE444416B995
:100A4000002CFFF6D5AEAB7E297E95F8200003344E
:100A500024F00704194444F004043B462246C9B27A
:100A600000F0E2FE0028FFF6C3AE044416B9002CE5
:100A7000FFF6BEAE36B1EA8B297F083292B240460D
:100A800010F0F6FAEB6A5BB176B1EC620020B1E6E9
:100A90008846B7E7002EF5D0002211461046EFE752
:100AA000002EF3D12046A5E62834FBD5A0E600BFF2
:100AB0001C05002024050020200500201FB572B66B
:100AC000184B1D6BE5B9BFF34F8F1749174BCA6819
:100AD00002F4E0621343CB60BFF34F8F00BFFDE72A
:100AE000B2FBF6F2DCB20133002AF9D104F11003B3
:100AF0006B4403F80C2C0A2234B901A8A847E2E79A
:100B0000024600230A26EDE7631E04AEDCB256FA65
:100B100083F3B0FBF2F602FB1600303003F80C0C46
:100B20003046E9E7F821002000ED00E00400FA0576
:100B300013B5114CA37A8DF80130637A8DF800302B
:100B4000237AADF804306846E379ADF8023009F055
:100B50005BF918B1D9210320FFF7B0FF207D09F020
:100B6000AFF908B1DC21F6E7E07C09F0A3F908B1A0
:100B7000DD21F0E702B010BDF821002038B50546B0
:100B800000283ED013F01CFD10B94FF0FF3038BDE7
:100B900019F0DFFCB0F5FA7FF7D81C4C1C48256330
:100BA000002500F089FA26222946A01C84F834503A
:100BB000257084F82850E56214F01AF91B22E271BE
:100BC00040F21B3240F20113228140F20232638074
:100BD000628101231F222371A281A3754FF4027247
:100BE000F723E281E38344F60112FB236282A384AC
:100BF000EFF3108472B600F035FE2CB962B62046D1
:100C0000C5E76FF01500C2E72846C0E7F8210020CD
:100C1000310B000038B51446002840F0B3805B4D1E
:100C200095F83430032B00F0AA80B1B112B96FF0FF
:100C3000150038BD0139142900F2A480DFE801F065
:100C40000B1C1F2F59627F356568793B414F5485D6
:100C50008896999C8E001378AB700020FFF7BAFD40
:100C60000028B7BF0123022385F834306FF00B0052
:100C7000A8BF85F83430DCE71378EB70EDE79378A4
:100C8000002BD4D0D378002BD1D013781A2BCED907
:100C900053781A2BCBD91368C5F80730DDE71378E2
:100CA0006A799342C3D32B71D7E713782A79934299
:100CB000BDD86B71D1E713782A799342B7D86B749A
:100CC000CBE71378002BB2D05378013BDBB2F82B83
:100CD000ADD813886B822E4B92789A70BDE710784E
:100CE00068750EF01FFAB8E71378002B9FD0AB752C
:100CF000B3E7012000F066FA237808B1012B96D9FA
:100D0000EB72AAE71388AB81A7E71378AB71A4E76E
:100D1000072000F057FA10B92378012B87D9072054
:100D200000F050FA10B12378002B80D02378EB73B9
:100D300093E71378082B3FF67AAF2B748DE713886F
:100D4000FF2B3FF674AFAB7387E71378EB7584E73F
:100D500013780E2B3FF66BAF2B767EE723680D4A98
:100D6000EB61636853602389138176E713786B76B0
:100D700073E71378EB7670E71378AB766DE74FF097
:100D8000FF3056E76FF02C0053E700BFF82100203A
:100D90000A22002014220020F8B50D46064630B382
:100DA00029B311F0070422D1124F97F83430012BE8
:100DB00002D16FF00B00F8BD032B02D14FF0FF30D2
:100DC000F9E700F0B5F80028F8D02846FFF702FD53
:100DD0000028EEDB19F02CFB3046F96A09F016F911
:100DE000FFF7A6FE032387F834302046E3E76FF0D1
:100DF0001500E0E7F821002010B5074C94F83430D6
:100E0000032B03D109F01EF90AF070F816F044F82C
:100E1000002084F8340010BDF821002050B1074BA9
:100E200003F1140253F8041B40F8041B9342F9D158
:100E3000002070476FF01500704700BFEBA9050058
:100E400010B5074B93F834403CB909F095F80320EE
:100E5000044900F0AFF9204610BD4FF0FF30FBE72A
:100E6000F8210020B107000010B5074B93F834407B
:100E70003CB909F095F80220044900F09BF920469E
:100E800010BD4FF0FF30FBE7F82100208D07000078
:100E900038B5094D95F8344054B909F0A3F801204C
:100EA000064900F087F9012385F82830204638BD2F
:100EB0004FF0FF30FBE700BFF8210020650700007E
:100EC00010B5054B93F834401CB909F007F82046DB
:100ED00010BD4FF0FF30FBE7F821002010B5054BA7
:100EE00093F834401CB916F0B3FF204610BD4FF004
:100EF000FF30FBE7F821002010B5054B93F8344094
:100F00001CB916F0A8FF204610BD4FF0FF30FBE7DC
:100F1000F8210020024B02681A600020704700BFD1
:100F200030220020014B1B68184700BF30220020F0
:100F3000024B1868003818BF01207047302200208B
:100F4000F7B52E4E0446071D2C48376009F0E6FF22
:100F50000228054606D12949204614F0B6FF284646
:100F600003B0F0BD042842D13378092B0AD0252BD9
:100F70001ED03146204615F00DF8B0F5817F2DD3F7
:100F8000722112E005213E2014F072FF0028F0D1FA
:100F9000F378327901A943EA02236846ADF80030BC
:100FA00015F0EDFB0028CFD053210820FFF786FD78
:100FB0001A213E2014F05CFF0028DAD17368C3F3D5
:100FC0000F23ADF804306946112301A88DF80630CF
:100FD00015F0FDFB0028B7D06521E6E70028B3D067
:100FE000A178207814F044FF0028B8D1ACE7082895
:100FF000B5D10249204614F097FFB0E73422002013
:10100000074B4FF0FF3141F6FF72C3E9001205496B
:101010000022C1E900221F21C3E90212704700BF6C
:10102000C0040020382300203F280CD801380B4B87
:10103000C0F3421200F01F0053F8223023FA00F0F0
:1010400000F001007047FF2806D04038C0F342127C
:10105000034B00F01F00EFE701207047C0040020A1
:10106000382300200146074B006849681A4603C22E
:1010700040F48C221A6041F0107242F4FF625A6010
:10108000704700BFC00400200246024B0068516850
:1010900003C37047C80400200138064BC0F3421256
:1010A00003EB820300F01F009B6823FA00F000F0BE
:1010B00001007047C0040020014B1860704700BF5A
:1010C0004023002010B5FFF79BFF16F070F9034B8B
:1010D0001B68044603B19847204610BD40230020FA
:1010E0000B880288F0B5C3F30E049EB204F114031A
:1010F000C57CC35A02352A442B4497B213FA82F3B3
:10110000013B4288B3FBF7F313FB07439BB29A42C0
:10111000044A93BF22EA0603324013439BB20B807A
:10112000F0BD00BF0080FFFF4A1E062A08B5034637
:10113000084604D84FF4D1711520FFF7BFFC094AC7
:10114000914202D940F2A311F6E711B903B1196037
:1011500008BD2BB11B680022C3E901211A1D1A60CA
:101160000430F5E7FAFFFF7F10B5114B00EB4104A7
:101170001A786389B3FBF2F303FB0223013A1A44A2
:10118000B2F5706F027928BF00231A448378B2FB4E
:10119000F3F0194403FB1020091AB1FBF3F003FB31
:1011A000101313446FEA43436FEA5343638110BD46
:1011B00044230020024B03EB80035960704700BFBB
:1011C00044230020034B03EB80035868003818BF0A
:1011D00001207047442300202DE9F04F10F0070A4A
:1011E00085B0054604D040F261111720FFF766FC78
:1011F000554F07F14006B1460446B0464FF0010B8B
:1012000057F8043B8DF80BA03BB101A898479DF817
:101210000A30082B01D9E821E7E79DF80B1081BBC4
:1012200005B13160B94506F10406E9D12DB3DFF807
:101230001CE100238EF800301E460F2258F82200D1
:10124000013A60B190F804A08178BAF1FF0F66D13D
:101250004FF000078E4207713CBFCEB20123511CF4
:10126000ECD10BB18EF800600F2640F6FF6A58F8FB
:101270002670002F65D1013EF9D2601B05B0BDE894
:10128000F08F9DF80AC0BCF1020FE64601F105029D
:1012900038BF4FF0020E0EF1FF3004EB420404445D
:1012A000CEF100002040BDF808406444013CCCF180
:1012B000000C04EA0C04B4F5803F4FEA420301D36A
:1012C000F82192E775B1C31A336099701C8083F8D6
:1012D00003B09DF80C201A71019A1A814FEA124C42
:1012E000A3F806C004FB01049CE758F82C90B9F160
:1012F000000F06D099F804B0D34504BF99F80290C6
:101300004F440CF1FF3CBCF1000FEEDA3944FF29E9
:10131000A0D90BB18EF8006040F2271165E7944622
:101320000027F0E707EB41033846A3F80AA0FFF7D0
:101330001BFF09F10109BB785FFA89F18B42F1D8F3
:1013400099E74FF00009F6E74823002044230020E6
:10135000034B03EB8003586C00B18078704700BFEB
:1013600044230020F8B54FF6FF730380184B03EBBE
:1013700081030546586CB8B186780379B3FBF6F261
:1013800006FB1233DBB219460A1D00EB4202B2F92A
:1013900002705488002F09DB0131B1FBF6F206FB25
:1013A0001211C9B28B42EFD10020F8BDFF29FBD04A
:1013B000C4F30E03C4782B8024B94FF4D5711720E1
:1013C000FFF77CFB5380BDE8F84015F0E7BB00BF9A
:1013D000442300201D4B03EB810370B55C6C054674
:1013E00044B3030404D54FF4DC711720FFF766FB08
:1013F0000146204615F0B4FBFF28014604D02046E4
:10140000BDE8704015F0CABBA078B5FBF0F300FB57
:101410001353DBB219460A1D04EB4206B6F902600B
:10142000002E09DB0131B1FBF0F200FB1211C9B251
:101430008B42F0D1002070BDFF29FBD08B4204EB22
:1014400042021CBF0023E3705580D8E744230020EC
:10145000094B03EB810310B55C6C0146204615F087
:101460007FFBFF28014604D02046BDE8104015F060
:1014700095BB002010BD00BF44230020F8B5104BE1
:1014800003EB810307465C6C0146204615F068FBC0
:10149000FF28054611D0E688238953EA064606D080
:1014A0000146204615F07AFB01463846B0472046F3
:1014B0002946FFF759FE0020F8BD0520FCE700BFD4
:1014C0004423002038B50E4B827903EB8203044697
:1014D000586C08B9052038BD8278E1799142F9D27B
:1014E0004B1CE37100EB41035D89B3F90A30002B1B
:1014F000F3DBA58015F052FB20600020EBE700BF76
:101500004423002070B5044610F003000E4603D0BB
:101510004F211820FFF7D2FAFFF706FE054624B147
:10152000034831460460FFF7FFFD284670BD00BF49
:10153000C82300202DE9F14FDFF870B09DF828A0F6
:101540009DF82C901E46DBF8003007460D4690466D
:101550001BB961211820FFF7B1FA52460921404614
:1015600015F084F94A4684B20921304615F07EF917
:1015700014FA80F1DBF8000015F0C7FA386018B9EA
:10158000286001B0BDE8F08F04442C6038685346F1
:101590004146092215F023F928684B4609223146B5
:1015A00001B0BDE8F04F15F01AB900BFC823002004
:1015B00070B50E46044615F06CF90546304615F038
:1015C00068F9044B2A1821461868BDE8704015F0E8
:1015D000C0BA00BFC8230020014B186815F089BAB3
:1015E000C82300201F2AF8B5044613460ED89200DF
:1015F000033222F00303B3F5803F2DD2184DACB176
:10160000A00710D05F210920FFF758FAFF2B4FEAFF
:10161000420204D9FF339A42A8BF1A46E8E77C2A5F
:10162000B8BF7C22E4E729706C602B8122F00302B2
:1016300001EB81031204D80001276B68120C00250E
:10164000EEB28E4200D3F8BD14B126181F705E6052
:10165000104401352833F3E74FF0FF30F3E700BFC4
:10166000CC23002038B5144A147853680021C8B23E
:10167000844203D8AB210920FFF720FA1846013134
:1016800005782833002DF2D00021817001241289C1
:10169000447044688161C161920800F12001051D18
:1016A00021F8022B994245F8044B1444F8D1002349
:1016B0004361037038BD00BFCC2300200A4B1B8957
:1016C000B3F5FF7F4FEA930006D25A089B1A9BB2EC
:1016D000984238BF18467047B3F5EE6F01D8FF2225
:1016E000F4E740F27263F3E7CC2300202DE9F843DE
:1016F0004B7880460C4602F0040602F0FB07D3B19B
:10170000DFB12E4BD4F804901D89B7BB0123637061
:10171000AD08A761E76104F120034A46211D04F1E9
:10172000280023F8025B984241F8042B2A44F8D1A0
:101730000023636101E0002FE3D0FF23A370002E9C
:1017400018BF0226A3191B7D032B03D1022F1CBF38
:101750000136F6B2A31901221A7506F10C0204EB48
:101760008606002324F812307268A370C8F800209F
:10177000A8F804304046BDE8F883002114226170C7
:10178000A01813F035FBB5F5FF7F0FD26B08ED1AEB
:10179000ADB209EB0502C4F804902584A26063840D
:1017A000C4F80C90A5842261E384C6E7B5F5EE6F1A
:1017B0004FF0FF03EBD940F27265EAE7CC2300203B
:1017C0002DE9F84305460C46F7200521914615F012
:1017D0004DF8061E22DB1DB914FB06F0BDE8F883A8
:1017E00015F0030703D098211920FFF767F9DFF8F8
:1017F0003480C8F81050A8F81460A5B2BBB29D425E
:10180000EAD9B8F814C0D8F810004B4607FB0C0012
:101810000522F72114F0E3FF0137EFE74FF0FF3027
:10182000DCE700BFE023002007B5CDE900230B462D
:1018300003490246081D15F009FB03B05DF804FBDF
:10184000F823002013B5064CCDE900230B460246D1
:1018500004F1080104F10C0015F0F8FA02B010BD13
:10186000F8230020134B012200214FF0FF309A6033
:10187000C3F80012C3F80803C3F80015C3F8042521
:101880009A60C3F80803C3F80015C3F804250A4991
:101890000A4A03F580334FF40040C3F80825C1F825
:1018A0008000BFF34F8FBFF36F8FC1F88001C3F883
:1018B0000825704700F0004000E100E00000F63F1E
:1018C0008C46302300B50CF8033B054B8E4607CB06
:1018D000CEF80300CCF80410CCF808205DF804FB27
:1018E0001424002010B5154C0EF016FD0DF0BEFDB1
:1018F000636A608C00219847237E9BB9104B628CF1
:1019000093E803000AF04AFAE36A18880AF070F9CB
:10191000636B94F8301094F831009847002384F8F2
:10192000383010BD94E8070004F10C0383E8070089
:10193000044904F1190017F045FBDFE708240020F3
:1019400030240020C1180000034B93F8383003B94D
:101950007047FFF7C7BF00BF0824002008B540F25A
:101960002B410620FFF7AAF808B5094B93F8382059
:10197000022A07D1DA7A42F00102DA72BDE80840A1
:10198000FFF7B0BF40F253212720FFF797F800BFC1
:101990000824002070B5364E96F8283005460BB165
:1019A000012825D001292AD8336C284698470446B7
:1019B00028B396F8303013BB96F8283013B31DBB0C
:1019C00096F84420D106C2F300152DD4F26C316D87
:1019D0001278C2F3001201B382F00104BBB1738F1D
:1019E0009A0715D5F36BDC78023C18BF012407E099
:1019F000738F1807D6D5F36BDB78022BD2D1012475
:101A0000204670BD012DDBD00024204670BD738FB1
:101A1000002BF4D1002DF3D0F6E7B6F854100029CE
:101A2000DAD0002BF3D0DAE7F16B0A7802F0030288
:101A3000032A02D1CA78022A18D0B06C14F0BCFF75
:101A400048B9F36B1B7803F00303032B06D196F818
:101A500028300546BAE796F82830B7E708F02EFC9C
:101A600080F0010596F82830EDB2AFE70025ADE72C
:101A70000824002070B5254CE56AE26C95F8A43086
:101A8000A265064694F85C000BB10430C0B295F82C
:101A90007D100EB9FF282FD00EF0E4F895F8A43091
:101AA00023B3206E0EF054FD94F82830216EA06D03
:101AB000003B18BF012384F88030D5E94223C4E9F4
:101AC0001E230DF077FC46B995F87D30033B012BC2
:101AD00094BF282000200EF0A9FD95F87C1000206E
:101AE0000EF00CFE022384F8383070BDA06D0EF0AD
:101AF0002FFD0DF0BBFCE6E795F87C208A42CFD0A5
:101B00000EF0B0F895F8A430CAE700BF0824002012
:101B10002DE9F0413B4C94F83830E56A012B82B056
:101B200069D15FFA83F895F8943006460F4673B191
:101B3000638F002143F00403638785F89410636A80
:101B40000420984794F828300BB185F89680E16B13
:101B50000B7803F00303032B2ED04B7843B30223FF
:101B600085F89A3095F8A430DBB1E36A93F87D10DC
:101B7000D5E94223C4E91E2394F8283094F85C2068
:101B80000139003BC9B218BF0123032984F8803012
:101B900036D81D4B00205B5C00901C4901200DF0E5
:101BA00091FB06B9E7B902B0BDE8F041FFF79ABE74
:101BB000012385F89A30D5E795F89A3063B9638F99
:101BC00043F0020363870220636A9847E16B0B7856
:101BD00003F00303032BC0D1032385F89A30C1E738
:101BE00031463046FFF7D6FE0028DCD102B0BDE812
:101BF000F041FFF73FBF40F2A4412720FEF75EFF10
:101C0000FFF7ACFE08240020C0FA04007024002076
:101C100070B5814CE56A94F85C3095F8A42082B0E8
:101C200000218DF805100AB10433DBB295F87C1061
:101C300010B9FF2B00F0AF80FF200EF013F895F8DD
:101C40009A30032B00F2E380DFE803F0021C80707F
:101C500094F8C230ADF806307048A5F86C3008F042
:101C600007FB002840F09D80A06C0DF105020DF1EE
:101C7000060114F036FEE06320B195F8E130002B48
:101C800000F0A7806648E06395F89B200378D200B7
:101C900002F0080203F0F303134395F89C2092002E
:101CA00002F00402134303F0EF0203F00303032BDB
:101CB000027002D1C378022B11D0A06C14F07CFE0C
:101CC00048B9E06B027802F00303032B07D008F059
:101CD000F5FA002876D1E06B027842F0100202702B
:101CE00095F8A33013B14378002B41D10EF030FCAE
:101CF0000DF0BCFBE66B09F019FA20B1337803F064
:101D00000303032B61D095F87D1001200EF0F6FC43
:101D1000E36B444A18889978A4F84400012384F8B6
:101D2000C430917084F8383002B070BD3B4808F080
:101D30009FFA002861D0E06BC3781B2B14D10121DE
:101D400005F110000DF0C0FFE06B0DE0B5F86C3050
:101D5000A06CADF806300DF105020DF1060114F08E
:101D6000C0FDE06300284DD0012384F8C3308BE729
:101D7000206E0EF0EDFB94F82860E16B206ED5E943
:101D80004023B6FA86F67609C4E91E2384F88060FB
:101D90000DF010FBAEE795F87D308B427FF44CAF31
:101DA0004DE7638FE16B626A43F480734FF4807098
:101DB00063879047E06B012185F89510C3781B2B52
:101DC000D2D1BDE7E06B027889E701200FF0EEFF8A
:101DD00099E79DF8053043B1BDF8061017F099F862
:101DE0000123E06B84F8C3304EE703808370E06B1F
:101DF000012116F083FFE06BEEE740F2FD21272082
:101E0000FEF75CFE40F2F3212720FEF757FE40F27A
:101E10000B312720FEF752FE082400204424002026
:101E2000982400204C2400202DE9F04FB84C94F861
:101E30003830E66A87B00022022B049240F012820A
:101E4000638C884613F04001074606D1636A402040
:101E50009847638C43F040036384002F5CD096F86E
:101E6000A430002B40F05C81D4F858A09AF80130DF
:101E700099B2A4F85410002940F06A810023236528
:101E80009AF80050638C96F89B10C5F3800243F4D7
:101E900000739142638400F0F080D4F82C9099F89C
:101EA0009A20FAB1022A00F0B78194F82830002174
:101EB00089F89A1023B199F89630002B40F0A2814E
:101EC00099F89530002B40F07F8199F89B30D4F839
:101ED00058A0012B0CBF0023012389F89B309AF8EE
:101EE0000050638C96F89C10C5F3C00243F4006365
:101EF000914263844FF0000900F0C780002509F08B
:101F000015F9F0B19AF8003003F00303032B18D150
:101F100001200FF04BFF14E096F8A420002A40F0B7
:101F2000F38043F48063638496F87D3094F8CE2088
:101F3000033B0132012B84F8CE2040F2D4800025EF
:101F4000A94696F8A33003B394F8283096F87C108D
:101F5000F069B3FA83F35B0984F8803041F64B53A0
:101F6000984294BF042000200139D6E94023C9B229
:101F70000329C4E91E2300F27A81664B00225B5CD0
:101F800000926549FB220DF09DF9B8F1000F08D1D0
:101F900094F8CE100120FFF7FDFC8046002800F0E9
:101FA000DF800EF0E7FB4FF00108002D3BD1B9F1C7
:101FB000000F09D094F82830002B40F09A80B4F834
:101FC00009300133A4F80930002F4BD0B4F80530A4
:101FD00000220133A4F8053084F8CE204F4809F0E0
:101FE000F5FD049830B114F064FDE16A002202723C
:101FF00008F0E4FF35B1E16A00232B720C22284679
:1020000008F0AAFFB8F1000F32D1638C1B0607D489
:10201000636A414680209847638C43F08003638461
:1020200007B0BDE8F08FA16D236D4D78002B00F057
:102030002081B4F854201846033212F061FE0DF1ED
:102040000E0205A9A065D4F8C80014F048FD059853
:1020500014F02FFD294601220546D4F8C80014F0DB
:10206000F5FCA4E7B4F807300133A4F80730B5E76E
:10207000FFF738FC07B0BDE8F08F96F89C10C5F369
:10208000C0029142B9467FF439AF05F00305032D34
:10209000D4F82CB06AD143F480536384638F012059
:1020A00043F00103514663878BF89400636A9847B5
:1020B000D4F858A000259BF89C30013B18BF0123A1
:1020C0008BF89C309AF80130002B3FF418AFDBF806
:1020D00008310133CBF80831DBF80C3143F1000350
:1020E000CBF80C310BE7012000250FF05FFEA9466D
:1020F00027E7B4F80530B4F80710B6F898200B437A
:1021000013433FF461AF5AE70DF022FA638C08E7FE
:1021100008240020C0FA040070240020302400208D
:102120000DF0DCF90DF0BEF9D4F858A09AF80130A2
:1021300000287FF49DAE002B61D09AF8002096F81D
:102140009C10C2F3C002914277D099B2A4F8541007
:10215000D4F8C80014F051FCD4F858A020658FE6DC
:10216000FFF756FD002D3FF422AF5CE7002DA2D013
:102170009AF80150002D9ED043F4805363849BF85D
:10218000A4500DF003FD042894F8CC3006D1002DA6
:1021900014BF1B221F22934228BF1346D4F858A015
:1021A0009AF801209A424ED8256D002D3FF4A7AE33
:1021B00094F8CD30002B53D0636A0021202098473B
:1021C0000025D4F858A09AE6002589F8955008F023
:1021D0005FF8002852D0638F43F0080363872946D5
:1021E000636A08209847D9F800310133C9F80031F3
:1021F000D9F8043143F10003C9F8043165E6A4F8C5
:1022000054303BE6638F89F8961043F010036387E0
:102210001020636A984753E6A06C04A914F084FB6D
:1022200088B3D9F800310133C9F80031D9F8043145
:1022300043F10003C9F8043137E6012384F8313053
:10224000FFF750FBECE694F83030012043F0100328
:1022500084F8303000250FF0A9FDD4F858A04EE6E0
:102260003D4628E74FF4A3612720FEF727FCFFF740
:1022700075FB40F295412720FEF720FC40F22541F6
:102280002720FEF71BFC40F20E412720FEF716FC2C
:1022900070B50D4B0D4C0E4A1A6094F838301BB1D6
:1022A000E1212720FEF70AFC03F0FF0206460D4657
:1022B000227609F06BFD012104F1900016F01EFD5D
:1022C000E664256670BD00BF2805002008240020B4
:1022D000C827000010B5074A92F8383013B10C2413
:1022E000204610BD03F0FF04147609F04FFD204690
:1022F00010BD00BF08240020024B012283F8CD202E
:10230000704700BF08240020F0B5BF4C85B002AD77
:1023100085E8030094F838000A9E002840F0BD814B
:10232000002A00F0BA81002B00F0B781002E00F0E7
:10233000B48100F0FF0184F8CD1084F8301084F8E7
:10234000CE1084F8311084F8C41084F8C31061876B
:10235000618495E80300236404F1280383E8030003
:10236000E56A626266630DF00FFD0DF07FF895F986
:1023700080000DF011FEA86B0EF0CEF8286A0DF06B
:1023800011FE95F8B4000DF017FE94F82860EA6984
:1023900041F64B53002E00F0C2809A4200F20D81AC
:1023A0004D200DF0D9FB01200DF036FFE36A93F8C4
:1023B00000327426002B40F00A8195F87D203146CA
:1023C00001200DF051FF914B18680EF0ABF8D5E9E4
:1023D0000523A264C4F8C83095F88B304BB9D5F802
:1023E000843033B1B5F8CE10B5F898208A4200F0A9
:1023F0000281D5F81411D5F81821D5F81C31844E76
:10240000D5F810010FC6D5F82031C4F88130E36A41
:10241000D5F82421C6F80D2093F89E20A2F12601BC
:10242000012940F28B8093F89F10262900F08680C6
:10243000213A012A40F20F81242900F0EF8093F81D
:102440007C60032E08BF042605F144073146384658
:1024500016F079FE314616F0A8F8B5F8503095F828
:102460007D100246934228BF1346384684F8C23096
:1024700016F02FFE95F87D1095F8A470B5F8586009
:10248000042908BF032116F090F80FB9043080B278
:10249000B04228BF3046C6B284F8CC6008F046FE91
:1024A00010B12B2E38BF2B2694F8280084F85C60DE
:1024B00000285ED195F8A330DBB1012384F8803089
:1024C000D5E94023C4E91E23EA6941F64B539A42F9
:1024D00098BF042095F87C30013BDBB2032B00F25F
:1024E000E1804C4A0021D35C0091FB2248490CF06A
:1024F000E9FE0120FFF78CFB0023C4E90033A36051
:10250000D5F88C302988B5F8980095F8B42060800B
:10251000218022710BB101221A6005B0F0BD9A42F0
:1025200058D84D200DF018FB30460DF075FE95F88B
:102530007C206E2100200DF097FE44E794F82820BF
:10254000002A33D193F8422293F87C60002A3FF4AA
:102550007BAFF31E012B40F28B80D31E012B40F288
:102560008780012E3FF470AF012A14BF0226012696
:102570006AE795F8A430ABB195F87D10D5E9422310
:102580000139C9B201200329C4E91E2384F880005F
:1025900000F288801F4B5B5C0021009132461C4991
:1025A0000CF090FE0120FFF765FAA5E793F8D6221C
:1025B00093F87C60002ACCD146E796200DF0CCFA47
:1025C000E36A93F800329D26002B3FF4F6AE0DF03F
:1025D000C9FBF2E696200DF0BFFA95F87C200D4B72
:1025E0000D4803EB4203998801F5FA71A0FB013114
:1025F00089096E319EE7B5F888100A440121A5F8D3
:10260000CE201960F5E600BF082400202805002030
:1026100070240020C0FA0400D34D621094F82820E2
:10262000002A3FF40CAF93F84E2193F8751093F8FD
:102630007C6002EA01035A071AD413F0010220D188
:102640009B077FF501AFF31EDBB2012B10D9012EE2
:1026500018BF0226F8E62429E0D094F82820002AA2
:102660003FF4EDAE93F84E2193F87C60500701D50E
:102670000426E9E612F0010309D191077FF5E4AEE3
:10268000E1E7033E012E8CBF16460426DCE6033E3E
:10269000012E8CBF1E460426D6E640F26F1127207D
:1026A000FEF70CFAFFF75AF908B5124B93F83820E9
:1026B00092B193F8282022B993F83830012B14D125
:1026C00008BD93F83820022A0AD1DB6AD3F8180231
:1026D000BDE808400DF076BFBDE80840FFF702B93D
:1026E00040F235212720FEF7E9F940F23121272079
:1026F000FEF7E4F908240020FFF7F4B8014B187640
:10270000704700BF08240020014B93F8C4007047B5
:1027100008240020034B93F8C30010B9588CC0F371
:102720000030704708240020024B588CC0F3C020B2
:10273000704700BF08240020014B93F8CE0070477B
:10274000082400202DE9F0411E4F8207FE6A82B066
:10275000044613D4E3070ED5D6E9423296F89C100E
:10276000013342F100020129C6E942320CBF0023C5
:10277000012386F89C3002B0BDE8F0813B6DE3B1E7
:10278000B7F854200D46B96D1846033291F8018010
:1027900012F0B6FA0DF1020201A9B865D7F8C80027
:1027A00014F09DF9019814F084F901222860414643
:1027B000D7F8C80014F04AF9CCE740F29541272039
:1027C000FEF77CF90824002069190000291E00008A
:1027D000111B00004919000008B540F2C131062064
:1027E000FEF76CF92DE9F843002800F0E08004467C
:1027F000072900F2D380DFE801F0AB2424A7D11F22
:102800009ECD0146204617F00CFBD4F84C3100F168
:10281000DB059D4240F2C680E81A322838BF3220DC
:10282000032111F047FBC4F84C510646204617F02F
:10283000B8FB002E00F09D802046BDE8F84317F05D
:10284000B1BB17F03DFBD4F81C21002305460E4612
:1028500084F8483184F85131BAB150EA010314D0F8
:10286000CA00C3001B1A42EA507262EB0102D4F89C
:1028700038115B18D4F83C1142EB0102D4E956013F
:10288000834272EB0103C0F09080022304F5A47729
:1028900084F85031384610F051FD002800F08B804C
:1028A00094F8683103F0FF01002B6BD1D4E9580292
:1028B0006FF000439A4208BFB0F1FF3F13D02046AB
:1028C000D4E9569817F0ADFAD4F86031D4F8642101
:1028D000B3EB090300F1DB0062EB08021B1A62F1A3
:1028E0000002002A4BDB94F81801394610F018FE5C
:1028F00000286AD0D4E95601D4E94C32834272EB05
:1029000001071FD255EA06071CD0C01A61EB02016D
:1029100033462A4612F056F905FB01F3D4E94C215F
:1029200000FB0636A5FB00535519334443EB010366
:10293000C4E94C5306E090F8180110F0D1FC0023D4
:1029400084F84031BDE8F883BDE8F8430DF026BFB8
:102950000BF0B6F8D4F84C01CB3811F009FA78B383
:10296000204617F0EBFA00283FF44BAF204617F053
:1029700018FBD4E95623C4E94E23BDE8F88320466A
:102980000BF0A6F894F8180110F0AAFC002384F8C4
:102990004031AFE7F4213020FEF790F8F8213020E5
:1029A000FEF78CF8C4F84C51E0E701236EE7D7211D
:1029B0003020FEF783F840F292613020FEF77EF877
:1029C00040F251213020FEF779F840F29661302034
:1029D000FEF774F82DE9F04F04468BB0002017463F
:1029E00094F87DB002930E46069015F0DBFA94F849
:1029F00001220B2A00F2C483734B33F8125094F86F
:102A00009F200392284487F0010285B2049227B3E5
:102A1000B4F89092B4F898A0A6EB09090FFA89F9D6
:102A2000A6EB0A0AB9F1000F0FFA8AFA04F5187832
:102A3000C0F254826549029A097801F0FF07002923
:102A400040F05C8294F84432032B00F2B083DFE85C
:102A500013F0BB018201C1003A0094F84422032A1A
:102A6000D6D1039A0E2AD3D1B4F8D422B242CFD110
:102A7000B4F81C12B4F892220A44C4F84022D4F8E4
:102A80004C22C4F83822E269C4F83C2220460CF0FB
:102A900067FAD4F8DC22E169914205D004F12800FC
:102AA00017F0B6FCD4F8DC22E261D4F8D822E26355
:102AB000B4F8D622A4F84020D4F8E02262620222C0
:102AC00084F84422A4E7E169029B01FB09F0002B92
:102AD00000F08282B4F81C32002B40F07D8284F832
:102AE0005B32D4F84C5294F89E1005FB1909262944
:102AF000CDF8189000F0BF8294F89F10262900F0BE
:102B0000BA82BAB3B3BBD4E9A0C2D4E99E0160458E
:102B100071EB020280F0468394F87D00C21E012A08
:102B200040F2FC820EF0AAF9294DD4F8801200F58B
:102B3000234E0EF1A10EA5FB0E3ED4E99E2394F880
:102B40007D008439A0F1030C8A1A9144BCF1010F75
:102B5000A9EB9E1940F220830EF090F900F2E732C3
:102B6000A5FB0232B4F81C32D4F84C5292094A4404
:102B7000103A06929A44ABF1030305FB0AFADBB262
:102B80000AF1300A012B4FEA4A0A40F2B78258464E
:102B90000EF074F90E4B00F52340A130A3FB00307A
:102BA0004FEA901958460EF061F90AF17405074A88
:102BB000E1694D442B18536041F64B52914240F26B
:102BC000A08206986EE000BFD0FA0400D82400204E
:102BD000D34D6210E36BD4F83C022946184417F039
:102BE000AEFC2946C4F84802E069BA4D17F0A7FCCC
:102BF000E26994F87D9041F64B539A4298BF0230B7
:102C0000C4F84C0248460EF039F9A9F1030900F561
:102C10005F40B9F1010F00F14100A5FB003094BF06
:102C20002821002101EB90118031204616F0F1FAA5
:102C3000B4F81C32002B00F0D781D4F83C32E26BA0
:102C4000D4F8480294F87DA013441B1AAAF103019A
:102C50000693C9B2D4F83832D4F84022B4F8409080
:102C600002FB0305303501294FEA450509F17409D6
:102C700040F2FC8150460EF001F9964B00F52340DE
:102C8000A130A3FB00304FEA901B50460EF0EEF847
:102C90004D44914AE1695D442B1853600698012226
:102CA00084F84422D4F84C526FF4AD724D1B154495
:102CB0009D42A0EB0700D4F88872069028BF1D46FD
:102CC000D4F88C32C4F81852381843F10003C4F811
:102CD00074320023C4F8700284F8603204F14400B6
:102CE00016F0F5F9D4E99C230544C4E9A223C4F8FD
:102CF0006452A4F890620BF07BFB20B1D4F86432EC
:102D00001E33C4F86432B4F80812039A8E1B0023F1
:102D100036B29E4284F86832C4BF022384F8683217
:102D20000E2A029A00F0B381002A40F0B38194F891
:102D30004432002B40F0CF8194F85C02414610F001
:102D4000EFFB002800F01E82049B84F8583200201C
:102D50000BB0BDE8F08FD4F84C02E269D4F84832E9
:102D6000D4F84012B4F81C5294F87DB0121A09FB42
:102D700002F20692D4F83822B4F840903033AA44D4
:102D800002FB0135C9438A44ABF1030300FB0A553A
:102D9000012B4FEA450509F1740940F2618158465B
:102DA0000EF06CF84B4B00F52340A130A3FB003034
:102DB0004FEA901A58460EF059F84D44464A554489
:102DC0002B185360069883E094F87D1094F816024F
:102DD000DFF800A115F011FC8146E06B294648445C
:102DE00017F0ADFB2946C4F84802E06917F0A7FBCD
:102DF000E26941F64B539A4298BF0230C4F84C0244
:102E000007A908A80DF0BEFC079B0093D4E9A20116
:102E1000DDE9082311F0B8FA94F87D3005930546F2
:102E200018460EF02BF8059B00F55F40033B012B85
:102E300000F1410094BF28210021AAFB003001EBE2
:102E400090118031204616F0E4F9D4F89432E26B08
:102E500094F87D00069305920EF010F84AF2A13B1B
:102E600000EB0B03AAFB0331069B059AD4F848023A
:102E7000943B13441B1A4B445B1B94F87D20B4F81D
:102E80004090A3EB91130693D31E00F13005012B64
:102E90004FEA450509F1960940F2E5801046059292
:102EA0000DF0ECFF8344AAFB0B3A059A4FEA9A1AFD
:102EB00010460DF0DBFF4D44074A55442B18536074
:102EC0000698D4F89422821AB2F5917FC0F05F81FF
:102ED000E169E7E6D34D6210D8240020D4E99E01D1
:102EE000C4E9A201B4490978002284F85B22D146E2
:102EF000012201F0FF0700293FF4A4AD059217F06D
:102F000024FB059A074600283FF49CADB4F8301224
:102F1000012940F2AE8094F84412022900F0A98001
:102F200094F85A12002940F0A480E06941F64B570A
:102F3000B84240F2FE8094F801120B2900F2208181
:102F40009E4B33F8115094F8443205F5C865012BB7
:102F5000ADB240F0F28094F8A230032B40F0038130
:102F6000D4F83C02E76B07442946059217F0E7FACC
:102F700003463846D4F83872C4F83832DB1BD4F82C
:102F80004072294603FB07F717F0D9FAD4F8483204
:102F9000C4F84802C01A07442946E06917F0CFFA7E
:102FA000E369059A41F64B518B42B4F81C32D4F8D0
:102FB000401253446FEA0101A3EB09030B44D4F818
:102FC0004C1298BF0230C4F84C02401A00FB037741
:102FD000012384F85A3235E594F85B32002B00F077
:102FE0008A80754B5B685DE6029B002B3FF425AE43
:102FF000D4F83C32E26B94F87D0003EB020B0DF049
:103000003DFF00F52340A130A5FB00304FEA9019A9
:10301000D4F84802D4F8802294F87DA0ABF1940B48
:10302000ABEB000B9344AAF10301D4E99E23C9B290
:103030000129ABEB020B7AD950460DF01FFF94F833
:103040007DA000F2E732A5FB0235AAF10301D4F816
:103050004802AD09C9B2ABEB09022A440692F9E570
:103060004FF0650AA6E64FF0650A21E74FF0650BC1
:103070000BE60027E6E4B4F8D412711A09043FF510
:1030800040AD94F8D712002918BF8B4639E5002AC5
:103090003FF452AEB4F83022D2B1B4F8320294F810
:1030A000341200FB01118A4200F101007FF744AEA7
:1030B000002B3FF441AE002384F86832A4F83202BA
:1030C00008F03AF800F00700013084F8340233E6E3
:1030D000A4F8322230E6E169D4F84C324046C91AED
:1030E00015F032FA80B200283FF426AE149B13B3D9
:1030F000188001202CE6B4F81C32F2E44FF0650988
:1031000050E5084606AB51462D4A15F093FA2A4B76
:1031100084F85B025B680698E169C3E5D4E99E0127
:10312000ACF1E90CACEB000C3C22E1441FE53C2582
:1031300091E70F4686E401200AE62946059217F03A
:10314000FEF9E369059ABB42B4F81C72D4F84C321C
:1031500098BF02305744A7EB0907C4F84C02C01AC5
:1031600000FB07F734E794F87D1094F81602E76B3C
:10317000059215F042FA059A0744D4F83C02F3E6AA
:10318000FFF72AFB40F27B513020FDF797FC40F21D
:10319000C6413020FDF792FCB4F81C32D4F84C52F2
:1031A0003C22E4E440F21A513020FDF787FC40F263
:1031B00032513020FDF782FCD8240020D0FA0400E0
:1031C000DC240020F0B585B0002800F0158104460D
:1031D000072900F20081DFE811F0920008000800E2
:1031E0007B00FE0080008800FA0017F016FBD4E98F
:1031F0009E23801A61EB0301012871F10003C0F2E4
:103200000D816FF00102002382428B41C0F20181E7
:10321000E3690BB1B0FBF3F394F89F200E2A00F0A2
:10322000CF80B4F89810B4F856220B449BB2D11A50
:103230000D0454BF531C01339BB2A4F8563294F8CA
:103240005932B4F8561223B9B4F80C328B4200F05C
:10325000C680B4F8D400B4F89830B4F89222724F13
:103260000344B4F8D200013B01321B1AA4F89222A5
:103270009EB202AD3B6853B1013989B200222046AB
:103280009847B4F85612014489B2A4F85612731A3A
:1032900018046ED4002300951A462046FFF79AFBC7
:1032A00000284AD1D4F884303BB3B4F8CE20B4F827
:1032B00056329B1A1BB2002B1FDDB4F888100B444A
:1032C000013BB3FBF1F313FB0123A4F8CE3014E070
:1032D00005B0BDE8F0400DF061BA01200EF066FDCA
:1032E00005B0BDE8F040FFF707BA90F84432042B70
:1032F00040F08B80002380F8443205B0F0BD90F898
:10330000583253B3B0F85622B0F898309A426BD086
:10331000D31AA0F80E32A0F89820D4E99C232046B6
:10332000C4E99E230BF00AFD94F81332002BE4D07D
:1033300005B0BDE8F04016F0E6BF012860D1B4F852
:103340005612B4F80832CA1A12042FD4BDF8083045
:10335000194489B2A4F856128CE7B0F85432B0F888
:103360009810B0F85422A0F898205B1AA0F80E32FA
:10337000D3E794F8A2200394002A0CBF3E2208222F
:10338000012384F8C12028468DF8083008F0C4F9DC
:10339000204616F0BAFF002384F8443294F85C0209
:1033A0000FF09EFF202384F85C32A6E7BDF80820CA
:1033B000114489B2721A12F4004F18BF1946C9E7B6
:1033C000B4F85612013189B2A4F8561241E7CB2164
:1033D0003020FDF773FBCF213020FDF76FFB01316B
:1033E00089B2A4F8561234E7B0F80C32A0F898303D
:1033F0009B1AA0F80E3290E7A6213020FDF75EFB65
:1034000040F254613020FDF759FBC5213020FDF713
:1034100055FB40F207613020FDF750FB40F206619A
:103420003020FDF74BFB00BF2C0500202DE9F043B9
:10343000D0F81C310026D0E9568983B080F820618D
:1034400005460F4683F8162280F840610121D0F826
:103450001C0107F031FAD5F81C41C4E99E8995F8A2
:10346000183184F85C32C4E9A289C4F8947284F8F3
:103470004462A4F8906233460096324631462046B4
:10348000FFF7A8FAD0B9012384F84432C4F8400207
:10349000C4F83802A4F85602A4F8540284F8590279
:1034A000B4F89830A4F89202013BA4F898300CF0DC
:1034B000DBFF03B0BDE8F0430FF09EBD40F2F31117
:1034C0003020FDF7FBFA00BFD0F81C01704700BFA9
:1034D0002DE9F04385B000230322CDE90033FF2618
:1034E0008DF806206846FDF7EDFF044620BB009DE1
:1034F00095F84031002BF5D085F868610121284608
:1035000016F052FD95F84031002BEBD095F81801DC
:1035100010F068FA95F8180110F0F4FD95F818010C
:103520000FF0DEFE00283CD085F840416846FDF7EC
:10353000C9FF04460028DAD0DFF87C80012388F830
:103540000830002502264FF6FF771AE0029BE3B110
:1035500093F85C22202A18D01888B8421BD0022188
:10356000FDF776FF814608B390F85C0210F0CAFDC3
:1035700099F85C0289F844420FF0B2FE202389F8E2
:103580005C32CDE902558DF80E6002A8FDF79AFF76
:1035900004460028DAD0002388F8083005B0BDE8DA
:1035A000F08340F2DF113020FDF788FA40F22B1152
:1035B0003020FDF783FA00BFD8240020054B0022FD
:1035C000012142F210705A72588119701A72FFF775
:1035D0007FBF00BFD82400202DE9F84390F8403188
:1035E000002B76D10446884601465648154603F01E
:1035F000FF070FF049FE202806466AD058223946B8
:1036000004F58C7011F0F4FB84F81861C4F81C8187
:10361000FF2384F84031B8F1000F06D007F0A4FD75
:1036200000F00700013088F8340202234FF0000850
:10363000A4F8503184F8488116F08DFF00F19E0601
:103640002046B6B216F07AFC002846D014F0AAFC48
:1036500000F5CD6189B2284616F071FF2844C4F800
:103660004C0117F0DAF8301841F100014FF0010970
:10367000C4F85801A4F82680C4F85C1184F820919D
:10368000204616F071FC002845D04946204616F029
:10369000C8FBA5F2D7452D1AC4F824514FF0FF32CC
:1036A0006FF00043C4E9582394F8180104F5A4719D
:1036B0000FF036FF00283FD0D4E956232046C4E956
:1036C0004C23C4E94E23002116F06EFC3846BDE8B9
:1036D000F8830C273846BDE8F8830146204616F0EB
:1036E000A0FBDFF86480DB30C4F84C01B8F80A00B6
:1036F00008B1E08CB8B9064417F08FF8361841F1DC
:103700000001C4E95661002DC8D0AE1941F1000195
:10371000C4E95861C8E7484616F01EFDDB3D2D1A86
:10372000C4F82451BAE707F01FFDB8F80A30B0FB1F
:10373000F3F202FB1300DEE740F2C1113020FDF787
:10374000BDF900BFE5270000D824002090F84031E3
:103750000BB90020704710B50446FF2380F868318C
:10376000012116F021FC94F840310BB9002010BD66
:1037700094F8180110F036F994F8180110F0C2FC12
:1037800094F818010FF0ACFD20B1002384F840310B
:10379000002010BD40F2DF113020FDF78FF900BF8F
:1037A000014B5872704700BFD824002090F8682160
:1037B00082B910B502F0FF0490F8202112B901225D
:1037C000104610BDD0E949319942F9D90AF080F983
:1037D0002246F5E700221046704700BF10B50446A8
:1037E0000CF0FAF9074BDA68824208D3E16941F636
:1037F0004B52914203D9187A80F0010010BD00208D
:1038000010BD00BFD824002008B540F2FF1115F00C
:1038100008FDB0F5296F28BF4FF4296080B208BDBC
:1038200090F81332002B75D1F0B503F0FF0590F836
:103830004432032B85B0044601D005B0F0BD16F02C
:10384000ECFFD4E99E23801A61EB0301012871F19A
:103850000003F2DB6FF00103834275EB01035CDBD5
:10386000E369B4F89820002B55D0B0FBF3F080B298
:10387000531C184480B2A4F85402B4F85422B4F88B
:103880000C329B1A1BB2002BD7DD94F85C0210F0AF
:10389000A9F80028D1D0FF2384F85932B4F8985001
:1038A000B4F8D420B4F8D230214F1544013DED1ABC
:1038B0003B68ADB20DF10E066BB1B4F8541201398C
:1038C00089B2002220469847B4F8543210FA83F3A4
:1038D0009BB2A4F85432B4F85432EB1A1B04ACD4A3
:1038E000B4F85412009689B2002301222046FFF753
:1038F00071F80028A1D0012814D1B4F85432BDF8D1
:103900000E2012FA83F39BB2A4F854323B68002BCA
:10391000D3D1E0E770471846AAE740F2AF51302014
:10392000FDF7CCF840F2F6513020FDF7C7F800BFA4
:103930002C0500202DE9F043044683B0062900F24F
:103940000081DFE801F0042512222B327600D0E955
:103950009E23D0E9A00182428B41C0F093807B4B33
:103960001B7A03F0FF02002B7DD0042384F844323D
:103970000CF07AFD0FF040FBB4F89820A4F8562222
:103980000023A4F8923284F8593203B0BDE8F083E2
:10399000032380F8443203B0BDE8F0830CF040F913
:1039A000C4E9A00103B0BDE8F08390F87D30DFF8F2
:1039B0009C91C569D0F84C22033B40F26D1840F24F
:1039C0004511012B88BF884699F8093095428CBF74
:1039D000AD1A00251BB9436C9D4228BF1D4604F15A
:1039E0004400D4F8187215F072FB0744022010F05E
:1039F0000DFAED1B25EAE575854228BF0546022133
:103A0000284610F057FA00B92F444246394620465E
:103A100015F0ECFBE269D4F81832C9F80C00D018A4
:103A200010F0A6F90028B0D140F279313020FDF72E
:103A300045F890F87D5028460DF020FA033D4449A2
:103A400000F55F40012D00F14100A1FB003094BF63
:103A50002821002101EB90118031204603B0BDE800
:103A6000F04315F0D6BBB4F80C12009201232046A7
:103A7000FEF7B0FF00283FF47BAF40F2CA61302070
:103A8000FDF71CF894F85A32002B3FF468AF94F815
:103A90004432032B7FF463AF94F87D8014F082FAF4
:103AA00094F801320B2B4AD82A4AD4F8806232F8B3
:103AB0001330D4F81892C51803F5C8639FB2D4E93F
:103AC0009E234046B61A0DF0D1F9A8F10302012A4F
:103AD000ADB2A9EB000930D940460DF0CFF91C4B2F
:103AE00000F52342A132A3FB02239B09A9EB0303A8
:103AF000A3F174025208D43B9D3205FB03F3B3FBE0
:103B0000F7F36033A2EB53018E424FEA530302D323
:103B100013449E4201D916F01AFDE069294616F0B9
:103B20000EFDE26941F64B539A4298BF02300023E2
:103B3000C4F84C0284F85A3211E76523D6E7FEF741
:103B40004BFE40F265713020FCF7B8FFD82400200E
:103B5000D34D6210D0FA0400012A70B5064609D090
:103B6000022A14460D461ED04AB140F28F71302011
:103B7000FCF7A4FF0CF030F8C6F8940270BD0CF00E
:103B80002BF8224601462846FFF750FC0F4995F8CE
:103B9000180132460EF0FAF80028EFD14FF4EF6129
:103BA0003020FCF78BFFD0F8941201222846FFF753
:103BB0003DFC064995F8180132460EF0E7F800285A
:103BC000DCD140F289713020FCF778FFC53100006C
:103BD000F8B5044651B101295BD1002380F82031AA
:103BE0000CF042FCBDE8F8400FF006BAC58C002D81
:103BF00047D12046D4E94C7616F062F9401941F1DC
:103C00000001C01946EB010100220223C4E956015C
:103C1000C4E94C0184F84821A4F8503194F8683183
:103C200003F0FF01002BDBD1D4E958026FF0004311
:103C30009A4208BFB0F1FF3F0CD194F8180104F587
:103C4000A4710FF06DFC0028CAD140F2E961302068
:103C5000FCF734FF2046D4E9565616F0E2F8D4F8C3
:103C60006031D4F864215B1B00F1DB0062EB0602DB
:103C70001B1A62F10002002ADFDA204609F028FF51
:103C8000AEE707F059FAE58CB0FBF5F303FB150539
:103C9000AFE740F29F713020FCF710FF90F8400131
:103CA000003818BF01207047014B5881704700BF92
:103CB000D824002008B540F2B7213220FCF7FEFEE0
:103CC00010B582B090F8023173B903F0FF02ADF87D
:103CD00004209DF804209DF80530002062F30700C1
:103CE00063F30F2002B010BD0C46363803F0FEFC23
:103CF000182204232270ADF80430EAE7044B1B6855
:103D00000022A3F8BB2083F8BD2083F890207047E1
:103D1000E824002008B506F09BFE034B18700CF059
:103D2000FBFA032008BD00BFD00400202DE9F041BC
:103D3000054617461E46A1B1AB681BB12FB13846E8
:103D4000BDE8F0810120BDE8F081002EF7D01849D0
:103D5000AA7C0968BDE8F04191F84100423114F0B5
:103D600084BBDFF84C80D8F8001091F85A2091F805
:103D7000A40001F15B039E3114F077FBD8F800300A
:103D800093F89120082A03D093F84E10914207D05F
:103D900093F85630012BCFD033B90028CCD1D2E7DD
:103DA00093F85630012BC7D90020BDE8F08100BF41
:103DB000E824002038B5124C20688C3002F020FE38
:103DC000256802F0BFFD2368C5F88C00D3F88C008D
:103DD00060B102F0E7FD70B10CF0BAFB00200CF00E
:103DE00025FC2368042283F8902038BD40F2EF417F
:103DF0003220FCF763FE40F2F1413220FCF75EFE18
:103E0000E824002008B506F023FE0549054B0246CC
:103E100008681A7001218C3002F054FE012008BDA0
:103E2000E8240020D004002070B53F4C236893F8AC
:103E30009020032A064635D093F89020042A31D0EA
:103E400093F854309B0733D16568002D52D0236816
:103E500093F85420002A43D07EB3284614F017FF6D
:103E600018B9284614F02EFF30B3236893F8902039
:103E7000022A4ED993F89020082A4FD893F8903010
:103E8000A26803F180431269033B284652F82330AD
:103E900098470C2829D8A368DB68BDE8704053F820
:103EA00020301847D3F88C0002F07CFD0546CCE7A3
:103EB00002F08EFD0546C8E7236893F89020022A99
:103EC0001DD993F89020082A1ED893F89030A26844
:103ED00003F180435269033B52F823309847D8E7F7
:103EE00041F2BB313220FCF7E9FD41F2CE31322004
:103EF000FCF7E4FD41F2B5313220FCF7DFFD41F281
:103F00009B313220FCF7DAFD41F29C313220FCF784
:103F1000D5FD41F23B313220FCF7D0FD41F23C317E
:103F20003220FCF7CBFD00BFE824002038B5144C4C
:103F3000236893F854309B0719D16568DDB1236875
:103F4000FF2093F8BA100BF08DFE28460CF000FB12
:103F5000236893F8BA30033B012B94BF282000203C
:103F60000CF064FB2368072283F8902038BD02F030
:103F70002FFD0546E2E740F216513220FCF79EFD88
:103F8000E824002010B5064C2368022283F8902014
:103F900002F05AFD2068BDE8104004F057BA00BF97
:103FA000E824002008B54FF462713220FCF786FD4A
:103FB00030B50478264D8DB004F00F0402A92246D6
:103FC00003F0A4F806F044FD042C287002D003206E
:103FD0000DB030BD1F4A039B146893F800C094F8DD
:103FE0009E108C45F3D193F801C094F89F108C4536
:103FF000EDD193F802C094F8A0108C45E7D193F866
:1040000003C094F8A1108C45E1D193F804C094F852
:10401000A2108C45DBD1597994F8A3309942D6D1BE
:104020009DF8191094F8A4309942D0D17F280CD073
:104030000090137C127B04F18C0002A97F242C7069
:1040400002F0CCFF03200DB030BDFFF7ABFF00BF87
:10405000D0040020E82400202DE9F04F044687B06A
:10406000062905D8DFE801F0D0502E0404040A0028
:104070000CF052F9032007B0BDE8F08FB14D28686D
:1040800090F89230002B00F0E98090F854309907B6
:1040900040F13A81AC4A92F900307F2B00F0F38175
:1040A00002932B7B01932146FF237F24009300F191
:1040B000420314708C30062202F0E4FE00232B74BD
:1040C0000920D8E70CF028F99E4B186890F8542086
:1040D0009507CFD090F89220002ACBD09A4D95F931
:1040E00000207F2A00F0CF8102921A7B2146FF2315
:1040F0007F24CDE9003200F1420302228C302C7083
:1041000002F0C0FE0320B6E78E4D827C296891F84C
:10411000483091F892A091F89390012A83F0010B16
:1041200000F0A280002691F8542012F0040000F064
:10413000A58091F84D70002F00F0A08091F84E708E
:10414000082F40F09E8091F841704FF00008BC4667
:1041500078B3626891F85B0092F800E0864500F061
:1041600039810023059391F89120082A06D0059BF8
:1041700091F84E00904208BF01230593B8F1000F5B
:1041800040F0DE80BBF1000F40F01D814046B9F1E8
:10419000000F09D02B6893F85630012B02D01BB9C1
:1041A000059B0BB1002844D10CF0B6F82B6893F8AE
:1041B000542093073FF45EAF0CF0AEF8BAF1000F55
:1041C0003FF458AF2968A36891F84100A27C4231BE
:1041D00014F04BF918B9B8F1000F00F035815A4EC0
:1041E00096F900307F2B00F04E8102932B7B2868DC
:1041F000CDE9007321467F2400F1420301228C3077
:10420000347002F03FFE35E74E4D286890F8543088
:104210005F071BD590F89330002B45D0636890F86A
:104220005B201978914200F0A98090F85630012B5C
:1042300001D10A201FE790F84E30082B03D090F8E8
:1042400091209A42F5D00CF067F8286890F89230E7
:1042500073BB90F89330002B7FF40CAF0CF05CF83C
:10426000032007B0BDE8F08F8268567906F0C006DB
:10427000A6F14006B6FA86F6760954E791F89170F1
:104280005EE7384606F05AF9002818BF8346002E2C
:1042900040F0CA80296891F8417091F85420B046E6
:1042A000BC4602F0040053E790F89230002BD5D0C2
:1042B00090F854309E0749D4D8077FF5DBAE5907F4
:1042C00000F1DA80204B93F900207F2A00F0DB8098
:1042D00002922A7B0192FF2200927F2018702868A8
:1042E000214600F1420300228C3002F0CBFD032076
:1042F0002B6893F89320002A7FF4BDAE93F8923098
:10430000002B7FF4B8AEA9E7DA07A7D55B0700F169
:10431000B0800D4A92F900307F2B00F0B4800293F8
:1043200028682B7B01937F26FF230093214600F111
:10433000420316708C30062202F0A4FD03209AE698
:10434000012024E7E8240020D00400204F4A92F9FD
:1043500000307F2B00F0978002932B7B0193214646
:10436000FF237F24009300F1420314708C3000225D
:1043700002F088FD01232B740920B9E7597890F8E1
:104380005C2091427FF451AF997890F85D20914282
:104390007FF44BAFD97890F85E2091427FF445AF1F
:1043A000197990F85F2091427FF43FAF5A7990F8E5
:1043B00060309A427FF439AF627C90F85A309A426A
:1043C0007FF433AF35E7A368A27C4231604614F036
:1043D0004CF8DCE692F801E091F85C0086457FF449
:1043E000C0AE92F802E091F85D0086457FF4B9AE68
:1043F00092F803E091F85E0086457FF4B2AE92F841
:1044000004E091F85F0086457FF4ABAE507991F8F7
:10441000602090427FF4A5AE637C91F85A209A1AEE
:104420005342534105939EE6A168384606F0C0F911
:104430002968804691F841C091F85420F8B14CF0B9
:10444000020702F0040083E6286890F85530023B2A
:10445000012B3FF60FAE002E3FF40CAE0B4E96F93B
:1044600000307F2B0FD002932A7BFE23CDE9003250
:10447000C0E60BF051FF4CE70BF04EFF22E767461A
:1044800002F0040064E6FFF78DFD00BFD0040020B9
:1044900010B5104A136893F8901002290FD993F8B9
:1044A0009010082910D893F89030926803F1804357
:1044B0009268033BBDE8104052F82330184741F2A0
:1044C000BB413220FCF7FAFA41F2BC413220FCF742
:1044D000F5FA00BFE824002038B51C4D2B6893F88E
:1044E0009020022A2CD8027C83F89820C168196792
:1044F0001A44044692F8BE2083F8BA2042685A67EC
:10450000037A022B0ED00BF03FFC0CF0DDF80AF022
:104510004FFE0F480CF006F80E480BF0FDFF0E485A
:104520000BF040FD637C03B938BD2868643013F09C
:1045300092FF2B68DB6E002BF6D001221A6038BD8B
:1045400040F6E2013220FCF7B9FA00BFE82400206F
:10455000D405002055555500D6BE898E30B5194C6E
:1045600094F900307F2B85B029D0174D0A460146BB
:104570007F2020702C6894F89000032815D094F8C0
:10458000900006280CBF03200120CDE902302B7BD0
:10459000019394F8BA30009304F18C0004F14203C3
:1045A00002F00EFB18B905B030BD0020EDE7286819
:1045B00001218C3005B0BDE8304002F04BBAFFF766
:1045C000F1FC00BFD0040020E824002038B50546E7
:1045D0000C4605F07DFD420704D4A37803F0E00308
:1045E000402B0DD005F074FD830704D4A37803F0AD
:1045F000E003202B04D0237803F03F03242B01D9C0
:10460000002038BD0BF0C8FA94F9003094F802C0CD
:104610006278002B0CF01F03ACBF1E214FF4967183
:1046200042EA032301FB03F31A1AB2F5877FE7D3AB
:104630009842E5D8054A23881068A0F8BB3080F876
:10464000BDC02946BDE8384003F0D6B8E8240020B4
:1046500070B5344E346894F8923084B053B394F803
:10466000813005460A4633B90378002B0CBF01237D
:10467000022384F8813094F89030062BD9B23BD0D5
:10468000072914BF01200220274B93F900107F292E
:1046900046D0CDE90210317B019194F8BA10009117
:1046A0007F21197004F18C0004F14203294602F0C5
:1046B00087FA18B90024204604B070BD6C7814F055
:1046C00010041BD0A9690220FFF780FF0446E8B15F
:1046D0003268002382F882306B69EBB15978C1F3FC
:1046E000031182F8831059781B7801F00F0143EA17
:1046F0000123A2F88430DEE70320C5E730680121FA
:104700008C3002F0A7F9204604B070BD306801215A
:104710008C3002F0D7F9CEE7FF2382F88330CAE766
:10472000FFF740FCE8240020D004002010B5044628
:104730008AB006F08DF92378184A03F00F03072B8F
:10474000107002D001200AB010BD6946204602F068
:1047500077FD684602F060FE9DF80030002BF1D135
:104760009DF80130DB07EDD50D4C019923689DF8CC
:10477000110093F8A4209E3313F077FE0028E1D0B7
:10478000206801219A3013F0DCFBFF216846FFF717
:104790005FFF0028D6D00220D5E700BFD00400205C
:1047A000E82400202DE9F04FDFF8F0A0847C91464A
:1047B000DAF8002092F84860012C83B0054688465C
:1047C0001F4686F001063FD000249AF80D30A3461C
:1047D000F3B192F854305B0722D46B68002B3AD0C7
:1047E00092F89130082B23D01846019305F0A6FECD
:1047F000002818BF0646BBF1000F23D09AF80F20FF
:10480000019B8AB313F070FE002203468AF80F2042
:1048100089F8003088F800403E7003B0BDE8F08FA2
:1048200092F84D30002BD8D092F84E30082BDBD1C7
:10483000BBF1000F06D09AF80EB0BBF1000F19D0F3
:104840000023E5E75B46E3E783685B7903F0C00399
:10485000402BB9D1B9E7D2F88C0002F039FC00281E
:10486000E6D0DAF80020BBE71846A96805F0A0FFFB
:104870000346CDE7A868594605F0C2FE03468AF80C
:104880000D000028C4D0019013F024FE0828D9D0D0
:10489000DAF80020019B82F89100B9E7E8240020B3
:1048A00008B5064B186801218C3002F0D3F806F0E9
:1048B000CFF8034B02461A70012008BDE8240020FF
:1048C000D00400202DE9F0416A4C6368D4F80080E0
:1048D000002205461A8018460F460BF039FE032DBC
:1048E00038D0052D4BD0606808F19E0113F0ABFF66
:1048F00098F8A410606813F0BAFF236893F8482072
:1049000093F8417003F142065AB193F854205207CC
:1049100019D493F8910005F085FF00281CBF0646C6
:1049200001276068314613F087FF6068394613F04D
:1049300091FF514BD3F80431002B40F09680052DA8
:1049400012D0BDE8F08193F84D20002AE1D093F811
:104950004E00E0E76068037823F00F0343F00303A1
:1049600003700C234370BFE7236831681A6DC2F8E7
:104970000A10B188D1811B6D5F72BDE8F081D4E966
:104980000006317821F02F0141EA471141F005017D
:10499000222331707370036D1B6AC6F80F30026DED
:1049A000936BF3741F0A1B0C37757375D369B2F8D8
:1049B000407041F64B518B42D16B3BD9DFF8BCC004
:1049C000ACFB01E1890AACFB07C7BF0AF175C1F373
:1049D0000721B77531762949A1FB0313C3F38F2350
:1049E00073761B0AB376938CF3761B0A3377D38CDA
:1049F00073771B0AB377D2F8A730C6F81F3092F846
:104A0000AB3086F82330036D96F8242093F8B2304B
:104A100022F01F0203F01F03134386F8243005F031
:104A20007DFB96F8243003F01F0343EA401386F819
:104A3000243058E7DFF848C0ACFB01E14909ACFB82
:104A400007C77F09F175C1F30721B7753176A3F563
:104A50007A7741F270718F42BDD80A49A1FB0313E6
:104A60009B0903F550639BB2BAE740F22F613220F5
:104A7000FCF724F8E8240020001000405917B7D1B3
:104A80001F85EB51D34D621010B50A4C05F0E0FFC5
:104A9000094A637B10701BB90BF03EFC032010BD6C
:104AA0000BF012FE0AF084FB002363730BF034FC5E
:104AB000032010BDE8240020D004002070B52C4C49
:104AC000236893F8BD2005465F2A93F8BB009CBF7E
:104AD0005109284A00F03F0094BF565C00260BF0B5
:104AE0006BFA236893F958000BF056FAEDB123687E
:104AF0003246196F01200BF0B7FB236893F8823020
:104B0000022B0CBF4020FF2031460BF0ABF823688E
:104B100093F8542092070ED193F88130656893B1D1
:104B20002846BDE870400BF013BD324673210120CA
:104B30000BF09AFBE1E701F04BFF236893F881301B
:104B40000546002BECD1681D05F088FD6073002838
:104B5000E6D0033E012E94BF552450240AF00AFBF0
:104B600020460BF0A5FD2846BDE870400BF0F0BCD8
:104B7000E8240020E8FA0400F0B52E4C236893F8EE
:104B8000BD205F2A9EBF51092B4A575C1A6F83B024
:104B9000064688BF0027002A40D1586F0BF012FD4F
:104BA000256895F854309A0703D595F88220022A93
:104BB0002BD05B0725D4D5F88C00D6B902F088FA43
:104BC00023680646D3F88C0002F088FA024605F105
:104BD0008600256895F8823095F8BA5000953146E0
:104BE00002F0C2FB2268002382F8BA70A37303B0FC
:104BF000F0BD02F07FFA014605F1860002F0AAFB43
:104C0000F0E795F88230012BD5D1FB1E012B0AD994
:104C1000394600200BF072FD2568CCE70120FFF734
:104C20004DFF2368B9E795F85930012B14BF394679
:104C30000321EEE7E8240020E8FA040010B50E4C4A
:104C4000637B8BB9206800F1BB020023012180F84F
:104C50009010A0F8BB308C30937001F0D1FE20682A
:104C6000BDE8104003F06EBD0BF02EFD0AF0A0FA77
:104C700000236373E6E700BFE82400202DE9F04736
:104C8000072986B00E46044691464ED1406800285A
:104C900000F09080637C012B00F0BF80DFF8DC82A5
:104CA000D8F8003093F89100082861D004AA0DF1DB
:104CB0000F0105F08DFC002800F079819DF80F00B0
:104CC00004A914F0E7FD0746D8F8005095F85430D1
:104CD00013F0030140F0B28013F0040385F8921042
:104CE00076D185F89330A64B1B6833B149462046F0
:104CF000984785F89400D8F80050636843B1627C07
:104D000085F8A4201A68C5F89E209B88A5F8A230D3
:104D100095F894300120002B00F04E81A3680BB170
:104D2000072E3AD006B0BDE8F0874768002F00F0A4
:104D30009080437C012BB1D17B7903F0C003402BE1
:104D4000ACD1DFF8388298F80D30002B71D0D8F84C
:104D5000005013F0BFFBD8F8003085F8910093F8AD
:104D6000910088F80C000123082888F80E309DD1A6
:104D70006168607C14F08EFDD8F8002061680746F9
:104D80009132607C05F002FC00289DD1D8F80050DB
:104D9000A5F8920085F89400C0E795F891100829CD
:104DA000C0D00028BED0184605F048FC012388F882
:104DB0000F30B7E7DFF8C481002A4DD0D8F8005093
:104DC00095F8543013F0030740F09180394683E79B
:104DD000062E95F84D3003D8002B82D13B4680E754
:104DE00095F893A0082E6ED8B9F1000F00F0BE80A0
:104DF000BAF1000F67D06268002AEDD1D5F88C00B7
:104E0000019302F065F918B9019B002B00F0CB80EB
:104E10000127D8F800503B4663E7437903F0C0030D
:104E2000402B7FF43BAFDFF8548198F80D30002B16
:104E30004BD1D8F8003093F8910035E7062E95F85D
:104E40004C1032D800297FF447AF3A46394617460E
:104E500042E7DFF8288137E7D8F8002092F854308D
:104E600013F0030118BF012113F0040382F892101C
:104E700005D02378A3F10103B3FA83F35B0982F829
:104E8000933092F88030002B3FF44CAFD8F80030CC
:104E9000D86F503015F08EFA00287FF443AFD8F861
:104EA0000030012283F894203CE7082E3AD90022F2
:104EB00013F0040385F892203FF413AF95F84D30BA
:104EC00095F893A08EE700230BE7B9F1000F7FF46C
:104ED0003EAFD8F8005095F8BA1001297FF439AFE9
:104EE00005F08EFB88F80D000028A2D02FE795F87A
:104EF0004C1095F892A00746BAF1000FD7D062681F
:104F0000002A9FD1D5F88C00019102F0E1F810B988
:104F10000199002942D03A460127D8F8005095F867
:104F2000543093E795F892A0B9F1000FE4D162688C
:104F3000002A87D16278D00624D5012185F8921005
:104F40005907C0D595F84D3095F893A00193D30635
:104F500012D4D5F88C0002F0BBF8019B00283FF476
:104F600054AFBAF1000F3FF450AF51E76268002A26
:104F70007FF432AF6278E9E70123B2E6E82400204B
:104F800030050020D5F88C00019102F0A1F80199BC
:104F90000028BED0BAF1000FBBD0BCE705F0F0FA94
:104FA0003A460746B9E705F0EBFA074631E740F61F
:104FB000A2313220FBF782FDB5F89200003818BF0D
:104FC0000120ABE610B5104C05F042FD0F4A637BA3
:104FD00010708BB9206800F1BB020023012180F81A
:104FE0009010A0F8BB308C30937001F009FD206860
:104FF000BDE8104003F0A6BB0BF066FB0AF0D8F842
:1050000000236373E6E700BFE8240020D0040020FB
:1050100010B5104C206801218C3001F053FD637BEA
:105020008BB9206800F1BB020023012180F89010A9
:10503000A0F8BB308C30937001F0E2FC2068BDE832
:10504000104003F07FBB0BF03FFB0AF0B1F80023E8
:105050006373E6E7E824002010B5124C20680121B4
:105060008C3001F02FFD05F0F3FC0F4A637B1070CC
:105070008BB9206800F1BB020023012180F8901059
:10508000A0F8BB308C30937001F0BAFC2068BDE80A
:10509000104003F057BB0BF017FB0AF089F8002310
:1050A0006373E6E7E8240020D004002010B5154C17
:1050B000206801218C3001F0CDFC05F0C9FC0246CE
:1050C0002068114B00219A301A7012F03AFF637B6E
:1050D0008BB9206800F1BB020023012180F89010F9
:1050E000A0F8BB308C30937001F08AFC2068BDE8DA
:1050F000104003F027BB0BF0E7FA0AF059F8002341
:105100006373E6E7E8240020D004002038B5164C8D
:105110000521206802F070FB50B12368012093F84C
:10512000BA100BF0EBFA23680B2283F8902038BDFD
:10513000637B8BB9206800F1BB0200230121A0F83A
:10514000BB3080F890108C30937001F059FC2068CF
:10515000BDE8384003F0F6BA05460BF0B5FA0AF0A0
:1051600027F86573E6E700BFE824002070B5234CFC
:10517000236893F8BD205F2A9EBF5109204A565CE0
:105180001A6F88BF002662BB586F0BF01BFA2568A8
:1051900095F854309A0703D595F88220022A17D043
:1051A0005B0703D595F88230012B11D0D5F88C0020
:1051B00001F0A0FF014605F1860002F0CBF823685C
:1051C0000622002183F8BA6083F89020A17370BD95
:1051D000F31E012B0AD9314600200BF08FFA256807
:1051E000E4E70120FFF76AFC2368CDE795F8593022
:1051F000012B14BF31460321EEE700BFE824002055
:10520000E8FA040038B5174D00210320FFF75AFBD8
:105210002868032102F0F0FA40B1012108460BF0A2
:105220006DFA2B68092283F8902038BD6B7B8BB90F
:10523000286800F1BB0200230121A0F8BB3080F8F0
:1052400090108C30937001F0DBFB2868BDE838408B
:1052500003F078BA04460BF037FA09F0A9FF6C7333
:10526000E6E700BFE824002010B5B0B9A9B1204A94
:10527000136893F89010082930D993F890100C29EE
:1052800031D893F89030926803F180435268093B1B
:10529000BDE8104052F823301847154C2068012112
:1052A0008C3001F00FFC637B8BB9206800F1BB02EE
:1052B0000023012180F89010A0F8BB308C3093704F
:1052C00001F09EFB2068BDE8104003F03BBA0BF0F4
:1052D000FBF909F06DFF00236373E6E741F28B41B0
:1052E0003220FBF7EBFB41F28C413220FBF7E6FB6F
:1052F000E8240020F0B52B4C236893F8BD205F2AEA
:105300009EBF5109284A575C1A6F83B088BF002797
:10531000002A3AD1586F0BF055F9256895F85430AA
:105320009A0703D595F88220022A25D05B0703D57A
:1053300095F88230012B1FD0D5F88C0001F0C8FE03
:1053400023680646D3F88C0001F0C8FE024605F13A
:105350008600256895F8823095F8BA500095314658
:1053600002F002F823680021052283F8BA70A173C5
:1053700083F8902003B0F0BDFB1E012B0AD93946FB
:1053800000200BF0BBF92568D6E70120FFF796FB5C
:105390002368BFE795F85930012B14BF3946032124
:1053A000EEE700BFE8240020E8FA0400F0B55D4C09
:1053B000206883B08C3001F023FB256801F0C2FA2D
:1053C0002368C5F88C00D3F88C00002800F0A58075
:1053D00001F0E8FA0546002800F09A80236893F867
:1053E000B030002B58D1206890F8983090F8902079
:1053F000034493F8BE7080F8BA701AB190F89030F8
:10540000012B62D190F89920474B134418790AF088
:10541000D3FD236893F89820134493F8BE60022EBE
:1054200051D032D9F31E012B31D801F085FA314623
:105430000AF018FC28460BF08BF8314601200AF0E0
:10544000C9FD012F37D0681D05F008F9607348B118
:10545000033F012F94BF5525502509F08BFE2846A8
:105460000BF026F923680022082103202173E28132
:10547000227483F89110A3F8922083F8942083F883
:10548000812083F8900003B0F0BD012ECDD040F212
:10549000EB713220FBF712FB236893F8542093F84A
:1054A000B100196DC3F83C11024383F85420002267
:1054B00083F8B02097E7E81C05F0D0F86073002867
:1054C000D0D04025C9E70D20B1E7002102F094F9C2
:1054D00008B1206896E7637B93B9206800F1BB02AE
:1054E0000023012180F89010A0F8BB308C3093701D
:1054F00001F086FA206803B0BDE8F04003F022B95D
:1055000001900BF0E1F809F053FE01986073E4E7B5
:1055100040F24E413220FBF7D1FA40F24C413220AA
:10552000FBF7CCFAE8240020E8FA040008B505F0FF
:105530008FFA044B18700AF0EFFEBDE80840FFF741
:1055400035BF00BFD004002010B50C4C05F080FA28
:105550000B4A637B10702BB90AF0DEFEBDE81040E9
:10556000FFF724BF0BF0B0F809F022FE00236373AD
:105570000AF0D2FEBDE81040FFF718BFE824002073
:10558000D004002038B50446FEF7A6FF237A032B8B
:1055900063D0012B6AD051D84E4C4F49226892F803
:1055A000993092F84B000133A1FB035C0CF4FF75BA
:1055B00005EB5C055B1B40FA03FC1CF0010FDDB240
:1055C00016D10133A1FB035C2CF0010505EB5C0552
:1055D0005B1B40FA03FC1CF0010FDDB208D1013364
:1055E000A1FB035121F0010505EB51015B1ADDB26E
:1055F00082F8995092F958000AF0CEFC23680022F4
:1056000083F88120FFF7D2FE256895F84830A3B1D2
:10561000D5E92A126FF000439A4208BFB1F1FF3F6B
:105620000BD015F0FAF8D5E92A23904271EB030369
:1056300003D3012005F088F818BB38BD023B012BCD
:10564000FBD8244C236893F8810090B9FFF794FAB3
:105650002368052283F8902038BD1E4B1B68186F05
:1056600098BBFFF72BFA237A012B94D1194C2268AF
:10567000C0E70120FFF780FA2368062283F8902014
:1056800038BD256804F09EFF044615F0C6F8630196
:105690001B1B4FEAD46262F10002520242EAD3526B
:1056A0005B021B1942F1000C4FEA8C1E9A014EEA74
:1056B000936ED31A6EEB0C021B1942F100021B18F9
:1056C00042EB0101C5E92A3138BD40F629113220EB
:1056D000FBF7F4F9E8240020ABAAAAAA2DE9F041CF
:1056E000A94E326892F8573086B05BB192F892308A
:1056F000054663B12C78012C14D0022C00F0DF8019
:10570000002C57D00324204606B0BDE8F08192F863
:1057100093100029EED192F894100029F2D02C7841
:10572000012CEAD192F8BA30022B6B7800F0FC80A1
:1057300003F01803182BE5D192F85430580700F104
:10574000F980990719D0914991F900307F2B00F029
:1057500055810293337B01930023039392F8BA306F
:10576000009302F18C0002F142037F220A70FF22B3
:10577000294601F025FA0028C4D0A9690120FEF7C6
:1057800025FF0028BED03268012382F882306B6981
:10579000002B00F0E98059780224C1F3031182F84C
:1057A000831059781B7801F00F0143EA0123A2F816
:1057B0008430A8E792F854108F07A3D01BB992F851
:1057C0009430002B9ED06B7813F0100F14BF08227A
:1057D0000122C3F3001732EA030393D1AA6800231E
:1057E0008DF815308DF816308DF81730002A00F03E
:1057F000C7800DF117030DF116010DF115022846B2
:10580000FEF7D0FF31689DF8153091F84180002BEC
:1058100040F0E880AB68AA7C4231404612F025FE99
:1058200090B9336893F85530023B012B3FF66AAFCD
:105830009DF81630002B3FF465AF9DF81530002B16
:105840007FF460AF4FF0FE08002F00F0A1804F4BB7
:1058500093F900207F2A00F0D18030680292002462
:10586000327B0192039490F8BA1000917F21197055
:10587000424600F1420329468C3001F0A1F900288C
:105880003FF440AFA9690120FEF7A0FE00283FF4D5
:1058900039AF336883F882406A69002A00F0A98032
:1058A0005178C1F3031183F883105178127801F015
:1058B0000F0142EA01220224A3F8842023E792F890
:1058C00054309B073FF41EAF6B7803F01803182B7E
:1058D0007FF418AF2D4B93F900107F2900F08E80D4
:1058E0000291317B01910021039192F8BA1000914D
:1058F0007F21197002F18C0002F142032946FF2238
:1059000001F05EF900283FF4FDAEA9690120FEF721
:105910005DFE00283FF4F6AE326882F882406B6983
:10592000002B62D0597838E703F01903192B3FF4A4
:1059300003AFE7E669680023B1FA81F11A46490925
:105940002846FEF7F3F900283FF4DCAEAB69326875
:105950009B7813F0E0030CD192F84930002B3FF410
:10596000D1AE92F85430ECE6FF2382F88330022463
:10597000C9E6402BF5D192F84A30002BF1D1C1E6AF
:105980004FF0FF0860E700BFE8240020D0040020AB
:105990001B4A92F900307F2B30D030687F21117084
:1059A00090F89020032A05D090F89020062A0CBF8A
:1059B00003240124CDE90234337B019390F8BA30FB
:1059C0000093424600F1420329468C3001F0F8F87A
:1059D00000283FF497AE306801218C3001F03AF88E
:1059E000032490E648F002082EE7FF2382F8833074
:1059F00089E6FF2283F88320022484E6FEF7D2FAA8
:105A0000D004002030B505468BB005F021F82C7885
:105A1000404B024604F00F04284669461A7001F014
:105A20000FFC072C3C4D51D02B6893F8542012F0FA
:105A3000060210D121466846FFF720F92B6893F83B
:105A4000BA30042B1BD8022B1ED903246B7B6BBBF3
:105A500020460BB030BD93F89820134493F8BE2035
:105A6000012A52D0002221466846FFF707F92B6829
:105A700093F8BA30012B0CD0023B022BE5D941F24E
:105A800033213220FBF71AF8012B02D0022BDCD095
:105A9000F5E7062C02D012D8022C32D821466846EF
:105AA000FEF7DAFA6B7B0446002BD1D00AF00CFE2D
:105AB00009F07EFB002320466B730BB030BD072C32
:105AC0001FD16846FFF70AFE0446BFE72B68684609
:105AD00093F8BA1001F0EEFB002221466846FFF76A
